:020000040800F2
:100000000000012015260008852500088725000826
:10001000892500088B2500088D25000800000000B8
:1000200000000000000000000000000011170008A0
:100030008F25000800000000A11700089125000886
:100040006526000865260008652600086526000864
:100050006526000865260008652600086526000854
:100060006526000865260008652600086526000844
:100070006526000865260008652600086526000834
:100080006526000865260008652600086526000824
:100090006526000865260008652600086526000814
:1000A0006526000865260008652600086526000804
:1000B00065260008652600086526000865260008F4
:1000C00065260008652600086526000865260008E4
:1000D000652600086526000865260008A125000899
:1000E00065260008652600086526000865260008C4
:1000F00065260008652600086526000865260008B4
:1001000065260008000000000000000065260008C9
:100110006526000865260008652600086526000893
:100120006526000865260008652600086526000883
:100130006526000865260008000000000000000099
:1001400065260008652600086526000800000000F6
:10015000000000000000000000000000000000009F
:100160006526000865260008652600086526000843
:100170006526000865260008652600086526000833
:100180006526000865260008000000000000000049
:0401900065260008D8
:1001A00010B5054C237833B9044B13B10448AFF3B1
:1001B00000800123237010BD5C00002000000000BF
:1001C000D826000808B5034B1BB103490348AFF319
:1001D000008008BD0000000060000020D826000854
:1001E00038B50E4A0E4B054618784FF47A73B3FBB8
:1001F000F0F31068B0FBF3F000F080F8044658B953
:100200000F2D09D8024629464FF0FF3000F042F882
:10021000044B20461D6038BD012038BD5800002029
:100220000000002004000020074A08B5136843F0CE
:1002300010031360032000F01BF80F20FFF7D0FF1E
:1002400002F004F9002008BD00200240034A044BDC
:1002500011681B780B441360704700BFC40D002069
:1002600000000020014B1868704700BFC40D00203B
:10027000074AD36823F4E0631B041B0C43F0BF63FD
:10028000000243F4003300F4E0600343D36070479E
:1002900000ED00E0174B30B5DC68C4F30224C4F174
:1002A0000703251D042B28BF0423062D4FF001054D
:1002B00005FA03F303F1FF338CBF033C002419401C
:1002C000A14005FA04F4013C2240002842EA010260
:1002D0004FEA0212AFBF00F1604000F00F00064B82
:1002E000D2B2A5BF00F56140D2B21A5480F8002303
:1002F00030BD00BF00ED00E014ED00E00138B0F1CA
:10030000807F0AD2064B074A5860F02182F82310FA
:100310000020072298601A6070470120704700BFD4
:1003200010E000E000ED00E090F82120022A10B576
:1003300003D004228263012010BD0268C46B1168DF
:10034000436B21F00E011160116821F00101116071
:10035000026C012101FA02F26260002480F821108F
:1003600080F8204013B19847204610BD184610BDB4
:100370002DE9F74FD1F80080DFF89091614A002312
:1003800038FA03F402D103B0BDE8F08F4FF0010E4C
:100390000EFA03FE18EA0E0600F0A6804C6824F060
:1003A0001007022F16D14FEAD30A00EB8A0A03F096
:1003B000070BDAF820504FEA8B0B4FF00F0C0CFABA
:1003C0000BFC25EA0C0C0D6905FA0BF545EA0C054A
:1003D000CAF820504FEA430A0325D0F800B005FAC6
:1003E0000AF5ED4304F0030C0BEA050B0CFA0AFCCA
:1003F000013F4CEA0B0C012FC0F800C011D88768F0
:1004000007EA050BCF6807FA0AFC4CEA0B0787607E
:10041000476827EA0E0EC4F300179F4047EA0E070D
:100420004760C7683D408F6807FA0AF73D43C560DB
:10043000E50059D5D9F8185045F00105C9F818500C
:10044000D9F8185023F0030707F1804705F001059C
:1004500007F58037019503F0030C019DBD684FEA55
:100460008C0C4FF00F0E0EFA0CFEB0F1904F25EAF7
:100470000E0E3BD0244DA8423AD005F58065A84227
:1004800038D005F58065A84236D005F58065A842CC
:1004900034D005F58065A84232D005F58065A842C4
:1004A00014BF0725062505FA0CF545EA0E05BD60C3
:1004B0001568F74314F4803F0CBF3D403543156089
:1004C000556814F4003F0CBF3D40354355609568B6
:1004D00014F4801F0CBF3D4035439560D568A402DD
:1004E00054BF3D403543D560013349E70025DAE785
:1004F0000125D8E70225D6E70325D4E70425D2E76E
:100500000525D0E700040140000400480010024027
:100510000AB1816170478162704743695940416106
:10052000704700002DE9F347054618B9012002B0D5
:10053000BDE8F0870368DF0711D42B689E0700F140
:1005400088802B681C0700F1FC802B68580700F19D
:100550004581AA69002A40F0DC810020E7E7BD4C14
:10056000636803F00C03042B0AD0636803F00C03E8
:10057000082B19D1636803F4C033B3F5803F13D15E
:100580004FF4003393FAA3F2216893FAA3F3B3FA7A
:1005900083F303F01F03012202FA03F30B42CCD0D2
:1005A0006B68002BC9D1C1E76B68B3F5803F1ED1E2
:1005B000236843F480332360FFF754FE4FF4003682
:1005C0008046012796FAA6F3226896FAA6F3B3FAB4
:1005D00083F303F01F0307FA03F31342ADD1FFF7D0
:1005E00041FEA0EB08006428ECD903209FE70BBB79
:1005F000236823F480332360236823F4802323605B
:10060000FFF730FE4FF400368046012796FAA6F336
:10061000226896FAA6F3B3FA83F303F01F0307FAEE
:1006200003F3134289D0FFF71DFEA0EB08006428F6
:10063000ECD9DAE7B3F5A02F236803D143F4802384
:100640002360B5E723F480332360236823F48023F9
:10065000B1E7804C636813F00C0F0AD0636803F0B5
:100660000C03082B25D1636803F4C033B3F5004FA6
:100670001FD1022393FAA3F2216893FAA3F3B3FAEA
:1006800083F303F01F03012202FA03F30B4203D0AA
:10069000EB6893427FF44AAF2168F82393FAA3F3FF
:1006A000B3FA83F22B69934021F0F80213432360DD
:1006B00047E7EA6801260AB396FAA6F3B3FA83F38A
:1006C00003F1845303F584139B0002271E60FFF798
:1006D000C9FD804697FAA7F3226897FAA7F3B3FA01
:1006E00083F303F01F0306FA03F31342D4D1FFF799
:1006F000B9FDA0EB08000228ECD976E796FAA6F33C
:10070000B3FA83F303F1845303F584139B000227A8
:100710001A60FFF7A7FD804697FAA7F3226897FAB9
:10072000A7F3B3FA83F303F01F0306FA03F31342AC
:100730003FF407AFFFF796FDA0EB08000228EBD9C6
:1007400053E76A69434E444901241AB394FAA4F367
:10075000B3FA83F30B449B0002271C60FFF782FD72
:10076000804697FAA7F397FAA7F397FAA7F3726A66
:1007700097FAA7F3B3FA83F303F01F0304FA03F322
:1007800013427FF4E2AEFFF76DFDA0EB08000228F4
:10079000E7D92AE794FAA4F3B3FA83F30B449B0056
:1007A00002271A60FFF75EFD804697FAA7F397FAD3
:1007B000A7F397FAA7F3726A97FAA7F3B3FA83F34A
:1007C00003F01F0304FA03F313423FF4BEAEFFF736
:1007D00049FDA0EB08000228E7D906E71D4CE369B4
:1007E000D90034D4E36943F08053E361E36903F053
:1007F00080530193019B0126184F3B68DA052FD5E2
:10080000AB68012B3DD1236A43F001032362FFF75C
:1008100029FD02278246B9464FF0010897FAA7F34F
:1008200097FAA7F3002B6CD0226A99FAA9F3B3FACE
:1008300083F303F01F0308FA03F3134258D0002E8A
:100840003FF487AEE36923F08053E36181E600263D
:10085000D2E700BF001002402081901000700040DD
:100860003B6843F480733B60FFF7FCFC80463B68C9
:10087000DB05C5D4FFF7F6FCA0EB08006428F6D929
:10088000B3E63BBB236A23F001032362236A23F010
:1008900004032362FFF7E6FC02278246B9464FF0C5
:1008A000010897FAA7F397FAA7F373B3226A99FAA4
:1008B000A9F3B3FA83F303F01F0308FA03F3134217
:1008C000BDD0FFF7CFFC41F28833A0EB0A0098427D
:1008D000E7D98AE6052B236A03D143F00403236298
:1008E00091E723F001032362236A23F004038DE7D9
:1008F000FFF7B8FC41F28833A0EB0A0098428DD98B
:1009000073E697FAA7F3626A8FE797FAA7F3626A2A
:10091000CDE7444C636803F00C03082B3FF406AEAC
:10092000022A4FF0807358D193FAA3F3B3FA83F3FA
:1009300003F1845303F584139B0000221A60FFF730
:1009400091FC4FF000778046012697FAA7F32268C2
:1009500097FAA7F3B3FA83F303F01F0306FA03F33E
:10096000134233D1E36A6A6A23F00F031343E3624D
:1009700062682B6AE96922F476120B4313436360C1
:100980004FF0807393FAA3F3B3FA83F303F1845324
:1009900003F584139B004FF000751E60FFF762FCA7
:1009A0000126074695FAA5F3226895FAA5F3B3FA4E
:1009B00083F303F01F0306FA03F313427FF4CDAD74
:1009C000FFF750FCC01B0228ECD90EE6FFF74AFCEB
:1009D000A0EB08000228B8D907E693FAA3F3B3FA0C
:1009E00083F303F1845303F584139B0000221A6000
:1009F000FFF738FC4FF000750746012695FAA5F37E
:100A0000226895FAA5F3B3FA83F303F01F0306FAFD
:100A100003F313423FF4A1ADFFF724FCC01B0228EF
:100A2000ECD9E2E50010024011494B6803F00C02DA
:100A3000082A1AD14FF4701292FAA2F20F20B2FAD9
:100A400082F2C96A90FAA0F0B0FA80F001F00F01CA
:100A500003F47013D340C140064A0748415C07487D
:100A6000B0FBF1F1D05C484370470448704700BFC9
:100A7000001002402C2700083C27000800127A00D2
:100A80002DE9F0410D46044610B90120BDE8F08182
:100A90004C4A136803F007038B422ED32268910758
:100AA00036D4D2073CD4474A136803F007039D426B
:100AB00075D32268444D12F0040F7CD1130706D57C
:100AC0006B68226923F4605343EAC2036B60FFF74B
:100AD000ABFF6B68F02292FAA2F2B2FA82F203F054
:100AE000F003D340394AD35CD840394B18600F200B
:100AF000FFF776FB0020BDE8F081136823F00703C1
:100B00000B431360136803F007039942BDD1C5E797
:100B10002D49A0684B6823F0F00303434B60C0E706
:100B20006268294E012A27D14FF4003393FAA3F1CA
:100B3000316893FAA3F3B3FA83F303F01F0302FAC5
:100B400003F30B42A1D0736823F003031A437260CE
:100B5000FFF788FB41F2883807467368626803F044
:100B60000C03B3EB820F9ED0FFF77CFBC01B40450C
:100B7000F3D90320BDE8F081022A0CBF4FF00073C7
:100B8000022393FAA3F1306893FAA3F3B3FA83F341
:100B900003F01F03012101FA03F30342D2E71368B4
:100BA00023F007032B431360136803F007039D42F0
:100BB0007FF46BAF7DE76B68E16823F4E0630B4380
:100BC0006B607BE70020024000100240782700089D
:100BD00058000020084B4FF4E0625B6892FAA2F2E2
:100BE000B2FA82F203F4E063D340044AD35C044ACD
:100BF0001068D840704700BF0010024088270008E6
:100C000058000020084B4FF460525B6892FAA2F241
:100C1000B2FA82F203F46053D340044AD35C044A2C
:100C20001068D840704700BF0010024088270008B5
:100C30005800002003682DE9F347DF03044623D55D
:100C40009B4DEB69DE0000F1D780EB6943F08053E8
:100C5000EB61EB6903F080530193019B0126954FF3
:100C60003B68D80540F1CA802B6A13F4407340F00A
:100C7000DA802B6A626823F4407313432B621EB13F
:100C8000EB6923F08053EB612068C30706D5884ADF
:100C9000A168136B23F003030B431363870706D587
:100CA000834AE168136B23F440330B431363460715
:100CB00006D57F4A2169136B23F440230B4313634A
:100CC000850606D57A4AE169136B23F010030B43BE
:100CD0001363810306D5764A616D536823F480035C
:100CE0000B435360420606D5714A216A136B23F009
:100CF00020030B431363430306D56D4A616A136BEC
:100D000023F040030B431363070706D5684A616964
:100D1000136B23F440130B431363C60606D5644AD2
:100D2000A169136B23F440030B431363850506D5B8
:100D30005F4A216B536823F400030B4353600106A1
:100D400006D55B4AA16AD36A23F4F8730B43D362D6
:100D5000C20506D5564AE16AD36A23F478530B4399
:100D6000D362C30406D5524A616B136B23F48073BC
:100D70000B431363870406D54D4A216C136B23F490
:100D800000730B431363C60206D5494AA16B136B6C
:100D900023F080730B431363850206D5444AE16B4D
:100DA000136B23F000730B431363410206D5404AD3
:100DB000616C136B23F480630B431363020206D54B
:100DC0003B4AA16C136B23F400630B431363C30111
:100DD00006D5374AE16C136B23F400530B431363BE
:100DE00010F000701CD0324A216D136B23F40043C5
:100DF0000B431363002013E0002630E73B6843F405
:100E000080733B60FFF72EFA80463B68D9053FF5BB
:100E10002BAFFFF727FAA0EB08006428F5D90320D1
:100E200002B0BDE8F087626802F4407293423FF47A
:100E300020AF296A4FF4803321F4407093FAA3F273
:100E4000DFF874E0B2FA82F2724492000127176070
:100E500093FAA3F3B3FA83F373449B0000221A605E
:100E6000CA0728627FF505AFFFF7FCF94FF00208CB
:100E70008246C14698FAA8F398FAA8F3A3B12A6A61
:100E800099FAA9F3B3FA83F303F01F0307FA03F304
:100E900013427FF4EEAEFFF7E5F941F28833A0EBA1
:100EA0000A009842E6D9BAE798FAA8F36A6AE7E72F
:100EB00000100240007000400081901003681A6822
:100EC00022F490721A609A6822F001029A6020233C
:100ED00080F86A30704770477047704708B5406ABD
:100EE0000023A0F85A30A0F85230FFF7F6FF08BDF3
:100EF00038B5044605682169A268C36928680A43B1
:100F000061690A4377491A4301400A432A606A68C3
:100F1000E168206A22F440520A436A60A968A26923
:100F200021F4306102430A43AA606F4A954212D10C
:100F300002F558426D49126B02F00302B3F5004FFF
:100F40008A5C66D0082A19D8DFE802F0C2929E189F
:100F5000A9181818AC00664A954224D102F5E63269
:100F6000126B02F44032B2F5803F00F0A08007D847
:100F7000002A00F0AA80B3F5004F76D0012038BDDA
:100F8000B2F5003F00F09980B2F5403FF3D1B3F5E0
:100F9000004F79D16068430803F5740303F51053DB
:100FA000B3FBF0F354E0534A95420ED102F5E4321C
:100FB000126B02F44022B2F5802F78D0D8D9B2F566
:100FC000002F7AD0B2F5402FE0E74B4A95420ED180
:100FD00002F5E232126B02F44012B2F5801F66D0C5
:100FE000C6D9B2F5001F68D0B2F5401FCEE7434A1C
:100FF0009542C0D102F5E032126B02F44002B2F524
:10100000800F54D0B4D9B2F5000F56D0B2F5400FCE
:10101000BCE7082A29D801A353F822F041100008A0
:1010200065100008950F00086B100008B510000847
:101030006B1000086B1000086B100008C11000084E
:10104000FFF7C8FD61684A0802EB4003B3FBF1F308
:101050009BB2002023F00F022168C3F34203134325
:10106000CB6038BDFFF7CEFDECE701200023F1E7B0
:10107000FFF7C8FD636800EB5300B0FBF3F01A4BB9
:1010800080B2D860002038BD6268530803F5F403CD
:1010900003F59053B3FBF2F39BB2EB60F2E7FFF77B
:1010A000C3FC17E06268530803F50043F2E7B3F5A9
:1010B000004FF4D1FFF7B8FCC4E7B3F5004FF1D10E
:1010C0006068430803F580336AE7B3F5004FB7D093
:1010D000FFF780FD636800EB5300B0FBF3F080B2D4
:1010E000E860CFE7F369FFEF003801404C270008C4
:1010F0000044004000480040004C004000500040C8
:10110000436ADA0710B506D50168846A4A6822F492
:10111000003222434A609C0706D50168C46A4A68C7
:1011200022F4803222434A60590706D50168046BD5
:101130004A6822F4802222434A601A0706D50168D1
:10114000446B4A6822F4004222434A60DC0606D51A
:101150000168846B8A6822F4805222438A6099066F
:1011600006D50168C46B8A6822F4005222438A6063
:101170005A060FD50168046C4A6822F48012224393
:10118000B4F5801F4A6005D14A68446C22F4C0025D
:1011900022434A601B0606D50268816C536823F41B
:1011A00000230B43536010BD2DE9F041069D04461A
:1011B0000F46164698462168CA6937EA02030CBFF3
:1011C00001220022B24202D00020BDE8F0816B1C57
:1011D000F2D09DB923681A6822F4D0721A609A6816
:1011E00022F001029A60202384F8693084F86A3082
:1011F000002384F868300320BDE8F081FFF732F85F
:10120000A0EB08008542D6D2E4E72DE9F3411F4662
:1012100090F86930202B04460D4690464CD10029A9
:1012200048D0002A46D090F86830012B44D00123E2
:1012300080F868300023C366212380F86930FFF707
:1012400011F8A4F850800646A4F85280B4F8522051
:1012500092B262B90097334640212046FFF7A4FFBF
:1012600098B9202384F8693084F868000EE0B4F857
:1012700052300097013B9BB2A4F852300022334613
:1012800080212046FFF790FF18B1032002B0BDE88F
:10129000F081A3682268B3F5805F07D123692BB979
:1012A00035F8023BC3F308031385CFE72B7813858A
:1012B0000135CBE70120E9E70220E7E773B50446F3
:1012C0000026C666FEF7CEFF23681B681A07054690
:1012D00017D423681B685B070AD56FF07E43009321
:1012E00000222B464FF480012046FFF75DFFA0B996
:1012F0002023002084F8693084F8680084F86A307C
:101300000CE06FF07E430093324603464FF4001129
:101310002046FFF749FF0028DBD0032002B070BD54
:1013200010B5044660B390F8693003F0FF021BB9B2
:1013300080F8682001F0AAF82268242384F8693034
:10134000136823F0010313602046FFF7D1FD012845
:1013500016D0636A13B12046FFF7D2FE23685A689D
:1013600022F490425A609A6822F02A029A601A681F
:1013700042F0010220461A60BDE81040FFF79EBF10
:10138000012010BD90F86930212B27D1B0F85230E0
:1013900002689BB24BB9116821F08001116011689D
:1013A00041F040011160002070478368B3F5805F11
:1013B000C36C0ED1016961B933F8021BC1F3080196
:1013C0001185C364B0F85230013B9BB2A0F8523093
:1013D000E9E7591CC1641B781385F3E702207047C5
:1013E000016808B50B6823F040030B60202380F8E8
:1013F0006930FFF770FD002008BD90F86A30222B9D
:1014000010B5036829D1998C8368B0F85C20B3F5D6
:10141000805F02EA0102436D1BD10169C9B923F85B
:10142000022B4365B0F85A40013CA4B2A0F85A40E0
:101430006CB903681A6822F490721A609A6822F0F4
:1014400001029A60202380F86A30FFF745FD0020F2
:1014500010BD591C41651A70E4E79A6942F0080210
:101460009A61022010BD00000268D369116870B54E
:1014700013F00F05044607D19E0605D58E0603D549
:10148000BDE87040FFF7B9BF9068002D5CD010F048
:10149000010502D111F4907F56D0D80707D5CE05AB
:1014A00005D501201062E06E40F00100E06698076B
:1014B00006D52DB102201062E06E40F00400E06617
:1014C0005E0706D52DB104201062E06E40F00200E8
:1014D000E066180707D58E0600D425B108201062F3
:1014E000E26E0243E266E26E002A50D0980604D50E
:1014F0008A0602D52046FFF780FFE36E1B072046D1
:1015000004D423689D6815F0400519D0FFF7D6FC78
:1015100023689A6856060FD59A68606E22F04002DA
:101520009A6048B11A4B4363FEF7FEFE78B3606ED3
:10153000BDE87040436B18472046FFF7CEFC70BDF6
:10154000FFF7CBFCE56670BDDD020ED546020CD57B
:101550004FF480131362202384F86930204684F806
:101560006A30BDE8704000F015B81D0606D50806C3
:1015700004D52046BDE87040FFF704BF5A0606D5E3
:101580004B0604D52046BDE87040FFF729BF70BD6B
:10159000DD0E0008704708B500F0E6FB002008BD2E
:1015A00030B5B0F90840028A0B4690E8220085B0B9
:1015B000842C14BF0334002403A80190009428460F
:1015C00000F002FB01280CBF0398002005B030BDDD
:1015D00008B5002808BF012000F014FD002008BD58
:1015E00008B500F0A7FD012803D0BDE8084000F0D1
:1015F00009B908BD00F1080343604FF0FF32C36032
:101600000361002382600360704700230361704719
:1016100043684B609A688A609A6851609960036871
:1016200008610133036070470A68531C30B50AD162
:1016300003695A684A6091608B6059600368086169
:101640000133036030BD00F108035C682568AA42DD
:10165000EFD32346F9E74168826803698A608268AC
:1016600051605968884208BF5A60002202611868B8
:1016700001381860704700000A4B1B68013308D01E
:101680004FF0500383F31188BFF36F8FBFF34F8F79
:10169000FEE74FF0500383F31188BFF36F8FBFF362
:1016A0004F8FFEE70800002006480068006880F3BE
:1016B000088862B661B6BFF34F8FBFF36F8F00DF4C
:1016C00000BF000008ED00E0DFF80C00016841F405
:1016D000700101607047000088ED00E04FF08073FA
:1016E00040F8043C074B40F80C3C21F001016FF03E
:1016F000020340F8081C40F8202C40F8243C4438F1
:10170000704700BF791600080000000000000000CC
:10171000074B19680868B0E8F04F80F30988BFF3F9
:101720006F8F4FF0000080F311887047AFF3008097
:10173000980C00204FF0500383F31188BFF36F8F94
:10174000BFF34F8F0A4A13680133012B13600DD189
:10175000084B1B6813F0FF0F08D04FF0500383F3C2
:101760001188BFF36F8FBFF34F8FFEE7704700BF45
:101770000800002004ED00E0084A136843B94FF068
:10178000500383F31188BFF36F8FBFF34F8FFEE7D2
:10179000013B13600BB983F31188704708000020E8
:1017A000EFF30980BFF36F8F154B1A681EF0100F0F
:1017B00008BF20ED108A20E9F04F10604DF8043D7D
:1017C0004FF0500080F31188BFF34F8FBFF36F8F3E
:1017D00000F076FC4FF0000080F3118808BC196817
:1017E0000868B0E8F04F1EF0100F08BFB0EC108A88
:1017F00080F30988BFF36F8F704700BFAFF300809D
:10180000980C002008B54FF0500383F31188BFF304
:101810006F8FBFF34F8F00F0EBFA18B1034B4FF00F
:1018200080521A60002383F3118808BD04ED00E0A4
:10183000064B4FF47A721B68B3FBF2F3044A013B88
:101840001360044B07221A60704700BF5800002045
:1018500014E000E010E000E0314B324A13B51968A3
:10186000914208D14FF0500383F31188BFF36F8F7B
:10187000BFF34F8FFEE71A682B4B9A4208D14FF007
:10188000500383F31188BFF36F8FBFF34F8FFEE7D1
:10189000264B1A78D2B20192FF221A701B78244A82
:1018A000DBB28DF803309DF8033003F05003137062
:1018B000204B07221A6000219DF80300000602F168
:1018C000FF3423D401B11A601A68120202F4E062F4
:1018D0001A60019B154ADBB21370174B1A6842F469
:1018E00070021A601A6842F070421A60FFF7A0FF97
:1018F000124B00221A60FFF7E7FE114A136843F00B
:1019000040431360FFF7D0FEFFF7B6FE9DF80320BB
:101910005200D2B28DF8032001212246CCE700BF4D
:1019200000ED00E071C20F4170C20F4100E400E021
:10193000780000207C00002020ED00E0080000205E
:1019400034EF00E010B50F4B1A68824218D35C6880
:101950001919884201BF416818460919596044683D
:1019600001198A4207D1084909688A421FBF516894
:101970001268091941609842026018BF186010BDD2
:101980001346E1E7900C0020800000202DE9F04193
:10199000044600F025FA3E493E4D0B680BBB3E4A1B
:1019A00056071FBFD01D20F0070002F540631B1A29
:1019B00014BF02464FF440631344083B23F007036F
:1019C000364E0B6000207060326058601860981AC4
:1019D0001360334B50601860324B18604FF0004377
:1019E0002B602F68274216D1002C41D004F1080348
:1019F00058071CBF23F00703083363B1294A166850
:101A0000B342904607D8254A15686868834204D8CF
:101A100009688D4207D100242AE02C68002CF7D0F9
:101A20002A462546F1E7296814681160C21A102A6F
:101A30000FD9E818410708D04FF0500383F31188FD
:101A4000BFF36F8FBFF34F8FFEE742606B60FFF70E
:101A500079FF13496B680868F61A1F4386424FF0F6
:101A60000003C8F8006038BF0E6008346F602B6058
:101A700000F050FA630708D04FF0500383F3118849
:101A8000BFF36F8FBFF34F8FFEE72046BDE8F081B5
:101A900080000020840C002084000020900C002096
:101AA0008C0C0020880C002010B5044670B3184A36
:101AB00050F8043C1268134208D14FF0500383F3EE
:101AC0001188BFF36F8FBFF34F8FFEE750F8081CEC
:101AD00041B14FF0500383F31188BFF36F8FBFF311
:101AE0004F8FFEE723EA020340F8043C00F078F948
:101AF000084A54F8043C1168A4F108000B44136030
:101B0000FFF720FFBDE8104000F004BA10BD00BF91
:101B1000840C0020880C0020064A13681968064BC4
:101B200019B94FF0FF321A6070471268D268D26854
:101B30005268F8E79C0C0020740D0020F8B51B4B90
:101B40001B4E1D680446306804300F46FFF783FDC6
:101B5000334640B93168174EC96A3268012088405F
:101B600022EA00023260621C07D137B119681248BC
:101B70000431BDE8F840FFF74BBD2C441A68A5427C
:101B8000546007D90D4A10681968BDE8F84004315F
:101B9000FFF74ABD0A4A106819680431FFF744FD8F
:101BA000084B1A68944238BF1C60F8BDBC0D002079
:101BB000980C0020440D0020940D0020A00C002063
:101BC0009C0C0020740D00202DE9F84F4FEA820A8A
:101BD000804650460F4699460B9EFFF7D7FE0546B6
:101BE000002800F096805420FFF7D0FE044600281D
:101BF00000F08C80AAF1040A056355447B1E25F091
:101C0000070A00F134020F37597802F8011B13F864
:101C1000011F09B1BB42F7D10A9D062D28BF062539
:101C20004FF0000B271DE5626564384684F843B029
:101C3000C4F848B0FFF7E9FCC5F1070504F1180046
:101C4000FFF7E3FCC4F84CB02461A561646284F83A
:101C500050B04A4641465046FFF740FD206006B16D
:101C60003460FFF767FD324B324E1A68DFF8F080C0
:101C700001321A603568002D4ED134601B68012B8B
:101C80001DD108EB05001435FFF7B4FC8C2DF8D1FD
:101C9000DFF8D090284D4846FFF7ACFC2846FFF708
:101CA000A9FC2648FFF7A6FC2548FFF7A3FC25481A
:101CB000FFF7A0FC244BC3F80090244B1D60244A7E
:101CC00024491368086801331360E26A012505FAA4
:101CD00002F3034314200B6000FB02803946FFF738
:101CE00097FCFFF749FD1C4B1B6863B13368DA6A48
:101CF000E36A9A4207D2194B4FF080521A60BFF341
:101D00004F8FBFF36F8F2846BDE8F88F2846FFF747
:101D1000CBFE4FF0FF35F6E70F4B1B68002BCED103
:101D20003368DA6AE36A9A4298BF3460C7E700BF53
:101D3000300D0020980C00205C0D00207C0D002050
:101D4000A80D0020940D00209C0C0020A00C002069
:101D5000400D0020440D0020900D002004ED00E017
:101D6000A40C0020480D002013B5174B019300244C
:101D700000942346802215491548FFF725FF0128C6
:101D800014D14FF0500383F31188BFF36F8FBFF36B
:101D90004F8F104B4FF0FF321A600F4B18600F4BF4
:101DA0001C6002B0BDE81040FFF756BD013008D1FD
:101DB0004FF0500383F31188BFF36F8FBFF34F8F42
:101DC000FEE702B010BD00BF700D002050270008D4
:101DD0004D200008740D0020900D0020BC0D002047
:101DE000024A136801331360704700BF3C0D0020A6
:101DF0002DE9F84F3C4B1B68002B53D13B4B1C6823
:101E000001341C60BCB93A4B1A68126842B14FF0F9
:101E1000500383F31188BFF36F8FBFF34F8FFEE73B
:101E2000344A1968106818601160334A1368013326
:101E30001360FFF771FE314D314F2B689C424FF01C
:101E4000000B3ED3DFF8A880DFF8C490D8F800205C
:101E5000126872BB4FF0FF322A6032E006F1040ACA
:101E60005046FFF7F8FBB16A19B106F11800FFF709
:101E7000F2FBF06AD9F80030012202FA00F11943AE
:101E8000204BC9F800104FF0140E51460EFB0030E5
:101E9000FFF7BEFB3868F16AC26A914228BF4FF073
:101EA000010BD3E7184A1368013313604FF0000B9E
:101EB00011E0D8F80020D268D66871688C42CDD283
:101EC00029603A680F4BD16A14224A439A58022A71
:101ED00028BF4FF0010B0D4A1268002A18BF4FF0BF
:101EE000010B5846BDE8F88F3C0D0020BC0D0020CA
:101EF0009C0C0020A00C0020780D0020740D002008
:101F0000980C0020A40C0020380D0020C00D0020EB
:101F1000440D00202DE9F843314C236843B94FF0BC
:101F2000500383F31188BFF36F8FBFF34F8FFEE72A
:101F3000FFF700FC2368013B236024682CB10024D8
:101F4000FFF71AFC2046BDE8F883264B1B68002BE0
:101F5000F5D0DFF8A890244FDFF8A480D9F800303E
:101F6000E3B90CB1FFF7D8FD204D2C6844B1204EE9
:101F70000127FFF73DFF00B13760013CF9D12C602C
:101F80001B4B1B68002BDAD01A4B4FF080521A60A3
:101F9000BFF34F8FBFF36F8F0124D1E7D9F80C3017
:101FA000DC68261D04F11800FFF755FB3046FFF7EB
:101FB00052FBE26A3968012505FA02F314200B434B
:101FC00000FB028031463B60FFF722FB0A4BE26ACE
:101FD0001B68DB6A9A4224BF054B1D60BEE700BF49
:101FE0003C0D0020300D0020440D0020380D002055
:101FF000C00D002004ED00E0980C00207C0D0020B6
:10200000A40C002008B540B90E4B4FF080521A6066
:10201000BFF34F8FBFF36F8F08BD0B4B196841B1F2
:102020004FF0500383F31188BFF36F8FBFF34F8FCF
:10203000FEE7FFF7D5FEFFF781FDFFF76BFF0028F6
:10204000E2D008BD04ED00E03C0D002008B5174EBD
:10205000174C236863B9174B1B68012BF8D9164B33
:102060004FF080521A60BFF34F8FBFF36F8FEFE7CF
:10207000FFF7B6FE3568FFF74DFF002DE9D0FFF7FB
:1020800059FBF368DD68281DFFF7E5FA0B4A136872
:10209000013B13602368013B2360FFF76DFB286B56
:1020A000FFF702FD2846FFF7FFFCD2E7A80D00204E
:1020B000340D0020A40C002004ED00E0300D0020C1
:1020C000174B1A68174B10B512B101221A6010BDD8
:1020D0001A60154B1B68B3FA83F3DBB2C3F11F031D
:1020E000142212495A4388188C5844B94FF05003AF
:1020F00083F31188BFF36F8FBFF34F8FFEE7446800
:102100000832646844600A44944204BF62684260D2
:10211000142202FB03135B68DA68054BD6E700BFA5
:102120003C0D0020C00D0020440D0020A40C002018
:10213000980C0020054B1B6833B1054B1B68002B26
:102140000CBF02200020704701207047900D002036
:102150003C0D0020031EBCBF2D225B4230B5BDBF2D
:102160000A700124013100241A460A2032B90A708B
:102170000A250A46A01A084423B930BD92FBF0F2A2
:102180000131F3E793FBF5F005FB1033303302F830
:10219000013D0346EEE70000F0B5164D87B03C2345
:1021A0000F46642001A92B70FFF7D4FF441C224680
:1021B00001A9681C00F07CFA2C2301A964202B558E
:1021C000FFF7C8FF01A9421C0646281900F070FA63
:1021D000A21901323E23AB54013241F2883392B24C
:1021E00029463846FFF711F808B100F02DF907B07D
:1021F000F0BD00BF0C00002008B54FF0904020213A
:10220000FEF78BF94FF41670BDE80840FFF7E0B910
:102210007047000008B5054D054C20462946FFF7DC
:10222000BBFF0120FFF7D4F9F7E700BFAC0E002099
:10223000380E002008B5FFF7DFFF0120FFF7C8F9CF
:10224000F9E708B5FFF7E4FF0120FFF7C1F9F9E767
:1022500030B5A7B02822002106A800F034FA1422D5
:10226000002101A800F02FFA5822002110A800F048
:102270002AFA0123099310230A934FF400430225FD
:102280000D9306A84FF4E0130E9306950C95FEF7F8
:1022900049F90F230024019329464FF4806301A8D4
:1022A0000493029503940594FEF7EAFB072310A814
:1022B0001093129413941494FEF7BCFC27B030BD15
:1022C00080B594B0FDF7B0FFFFF7C2FF14220021E4
:1022D0000FA800F0F8F94E4B5A6942F400225A61F7
:1022E0005A6902F400220192019A5A6942F480026A
:1022F0005A615A6902F480020292029A5A6942F4BF
:1023000000325A615A6902F400320392039A5A6900
:1023100042F480225A615B6903F480230022049313
:1023200020214FF09040049BFEF7F2F84FF4005349
:1023300000240F930FA9374B374810931194FEF7E1
:1023400017F820230FA90F934FF09040012310930B
:1023500011941294FEF70CF83048314B84600C2530
:102360004FF4164680E848004561C460046184610A
:10237000C46104624462FEF7D3FF2A482A4B4561D8
:1023800080E848008460C46004618461C4610462C0
:102390004462FEF7C5FF2548254B264A4365456143
:1023A0006423254DA0F858304FF4165380E80C00F4
:1023B0008460C46004618461C46104624462FEF7A5
:1023C000AFFF0FCD05AF0FC72E46214656F8043B91
:1023D0003B6005A8FFF7E4F8184B18600FCE0AAF72
:1023E0000FC733683B6021460AA8FFF7D9F8144BA2
:1023F000183518600FCD0FAE0FC62B68336021461D
:102400000FA8FFF7CDF80F4B1860FFF7C4F8FEE7F1
:10241000001002400000211000080048940F002026
:1024200000440040380E002000380140AC0E00206F
:10243000280F002000480040F0260008A80E0020C9
:10244000041000201C0F0020704700000E4B07B541
:102450009A6942F001029A619A6902F001020092BF
:10246000009ADA6942F08052DA61DB6903F0805346
:10247000019300220F216FF00100019BFDF70AFF7D
:1024800003B05DF804FB00BF0010024010B5044625
:102490008CB01422002107A800F015F92368334AF4
:1024A000934220D1324B33489A6942F480429A6178
:1024B0009A6902F480420192019A5A6942F4002218
:1024C0005A615B6903F400230293029B3023079354
:1024D0000223089303230A9307230B9307A9FDF70D
:1024E00047FF0CB010BD244A93421CD1204BDA693F
:1024F00042F40032DA61DA6902F400320392039A9C
:102500005A6942F400325A615B6903F40033049360
:10251000049B0C2307930223089307230B9307A91B
:102520004FF09040DBE7154A9342DAD1104B144844
:10253000DA6942F48022DA61DA6902F480220592D3
:10254000059A5A6942F480225A615B6903F4802338
:102550000693069B4FF440630793022308930323DB
:102560000A9307230B9307A9B9E700BF003801407E
:1025700000100240000800480044004000480040AD
:10258000000400487047FEE7FEE7FEE7FEE77047FD
:1025900008B5FDF75BFEBDE80840FFF721B8000075
:1025A0000148FEF761BF00BFAC0E00201549D1F80D
:1025B000883043F47003C1F88830134B1A6842F036
:1025C00001021A605868114A02405A601A6822F0E3
:1025D000847222F480321A601A6822F480221A600F
:1025E0005A6822F4FE025A60DA6A22F00F02DA62B6
:1025F000186B074A02401A6300229A604FF000638A
:102600008B60704700ED00E0001002400CC07FF8C6
:10261000CCFC00FFDFF834D0002103E00C4B5B580A
:10262000435004310B480C4B42189A42F6D30B4AE4
:1026300002E0002342F8043B094B9A42F9D3FFF72A
:10264000B5FF00F011F8FFF73BFEFEE700000120A8
:1026500098270008000000205C0000205C0000209B
:1026600008100020FEE7000070B50D4E0D4CA41BB5
:10267000A4100025A54209D10B4E0C4C00F02CF8FB
:10268000A41BA4100025A54205D170BD56F8253025
:1026900098470135EEE756F8253098470135F2E7BF
:1026A000902700089027000890270008942700082A
:1026B00010B5431E0A44914200D110BD11F8014BE0
:1026C00003F8014FF7E702440346934200D17047F5
:1026D00003F8011BF9E70000F8B500BFF8BC08BC1F
:1026E0009E467047F8B500BFF8BC08BC9E467047D0
:1026F0006C27000815220008000000000000000000
:10270000800000006127000835220008FDFF00005E
:102710000000000080000000552700084322000848
:10272000FDFF00000000000080000000020304051F
:10273000060708090A0B0C0D0E0F10100102030406
:1027400005060708090A0B0C0D0E0F1001040802FC
:1027500049444C45006578746C456E765461736BE2
:10276000006472697665725461736B0064656661BA
:10277000756C745461736B00000000000000000071
:102780000102030406070809000000000102030417
:04279000C501000877
:04279400A101000897
:102798000100000010000000AAAAAAAA202A2A2ADA
:1027A8002A20554152545F54776F426F61726473A7
:1027B8005F436F6D506F6C6C696E67202A2A2A2AF6
:1027C8002020202A2A2A2A20554152545F54776F04
:1027D800426F617264735F436F6D506F6C6C696EAA
:0C27E80067202A2A2A2A200000127A000A
:0400000508002615B4
:00000001FF
